:100000000C945D000C9485000C9485000C94850084
:100010000C9485000C9485000C9485000C9485004C
:100020000C9485000C9485000C9485000C9485003C
:100030000C9485000C9485000C9485000C9485002C
:100040000C941E030C9485000C94EC020C94C602D4
:100050000C9485000C9485000C9485000C9485000C
:100060000C9485000C9485000000000024002700FB
:100070002A0000000000250028002B0004040404CE
:100080000404040402020202020203030303030342
:10009000010204081020408001020408102001021F
:1000A00004081020000000080002010000030407FB
:1000B0000000000000000000840411241FBECFEFE8
:1000C000D8E0DEBFCDBF11E0A0E0B1E0E0E2FAE0B1
:1000D00002C005900D92A231B107D9F721E0A2E14B
:1000E000B1E001C01D92AA3BB207E1F710E0CDE5F7
:1000F000D0E004C02197FE010E940805CC35D1074D
:10010000C9F70E9468030C940E050C940000AF928E
:10011000BF92CF92DF92EF92FF920F931F93CF93F4
:10012000DF936C017B018B01040F151FEB015E0156
:10013000AE18BF08C017D10759F06991D601ED91EB
:10014000FC910190F081E02DC6010995892B79F78A
:10015000C501DF91CF911F910F91FF90EF90DF903C
:10016000CF90BF90AF900895FC01538D448D252F03
:1001700030E0842F90E0821B930B541710F0CF9641
:10018000089501970895FC01918D828D981761F073
:10019000A28DAE0FBF2FB11D5D968C91928D9F5F8A
:1001A0009F73928F90E008958FEF9FEF0895FC0169
:1001B000918D828D981731F0828DE80FF11D858D1C
:1001C00090E008958FEF9FEF0895FC01918D228DAF
:1001D000892F90E0805C9F4F821B91098F73992734
:1001E00008958BE191E00E94E50021E0892B09F45C
:1001F00020E0822F089580E090E0892B29F00E9472
:10020000F10081110C9400000895FC01A48DA80F49
:10021000B92FB11DA35ABF4F2C91848D90E0019648
:100220008F739927848FA689B7892C93A089B18968
:100230008C91837080648C93938D848D981306C009
:100240000288F389E02D80818F7D80830895EF926D
:10025000FF920F931F93CF93DF93EC0181E0888F80
:100260009B8D8C8D98131AC0E889F989808185FF50
:1002700015C09FB7F894EE89FF896083E889F989F2
:1002800080818370806480839FBF81E090E0DF91F4
:10029000CF911F910F91FF90EF900895F62E0B8D47
:1002A00010E00F5F1F4F0F731127E02E8C8D8E1102
:1002B0000CC00FB607FCFACFE889F989808185FF69
:1002C000F5CFCE010E940501F1CFEB8DEC0FFD2F94
:1002D000F11DE35AFF4FF0829FB7F8940B8FEA8924
:1002E000FB8980818062CFCFCF93DF93EC01888D33
:1002F0008823B9F0AA89BB89E889F9898C9185FDA1
:1003000003C0808186FD0DC00FB607FCF7CF8C912E
:1003100085FFF2CF808185FFEDCFCE010E940501E0
:10032000E9CFDF91CF91089590E0FC01EC55FF4FAC
:100330002491FC01E057FF4F3491FC01E458FF4F3A
:10034000E491EE23C9F0222339F0233001F1A8F41F
:10035000213019F1223029F1F0E0EE0FFF1FEE58A5
:10036000FF4FA591B4918FB7F894EC91611126C01D
:1003700030953E233C938FBF08952730A9F0283055
:10038000C9F0243049F7809180008F7D03C08091AF
:1003900080008F7780938000DFCF84B58F7784BD16
:1003A000DBCF84B58F7DFBCF8091B0008F778093BA
:1003B000B000D2CF8091B0008F7DF9CF3E2BDACF45
:1003C000CF93DF9390E0FC01E057FF4F24918458D6
:1003D0009F4FFC0184918823D1F090E0880F991FF2
:1003E000FC01E859FF4FA591B491FC01EE58FF4F75
:1003F000C591D49161110EC09FB7F8948C91E22FF2
:10040000E0958E238C932881E223E8839FBFDF91C0
:10041000CF9108958FB7F894EC91E22BEC938FBFB6
:10042000F6CF1F93CF93DF93182FEB0161E00E946B
:10043000E001209739F460E0812FDF91CF911F9187
:100440000C949401CF3FD10511F461E0F5CFE12F79
:10045000F0E0EC55FF4FE491E33031F140F4E1304E
:10046000B1F0E230E1F0C038D1057CF7E4CFE730FD
:1004700029F1E83059F1E430B1F7809180008062D1
:1004800080938000D0938B00C0938A0004C084B511
:10049000806884BDC7BDDF91CF911F91089584B559
:1004A000806284BDC8BDF7CF809180008068809352
:1004B0008000D0938900C0938800EDCF8091B00078
:1004C00080688093B000C093B300E5CF8091B00006
:1004D00080628093B000C093B400DDCF3FB7F89442
:1004E0008091170190911801A0911901B0911A0102
:1004F00026B5A89B05C02F3F19F00196A11DB11D7F
:100500003FBFBA2FA92F982F8827BC01CD01620FBA
:10051000711D811D911D42E0660F771F881F991F75
:100520004A95D1F708958F929F92AF92BF92CF9242
:10053000DF92EF92FF926B017C010E946E024B01F1
:100540005C01C114D104E104F104B9F00E946E020F
:10055000681979098A099B09683E734081059105EC
:1005600080F321E0C21AD108E108F10888EE880E74
:1005700083E0981EA11CB11CE4CFFF90EF90DF90A8
:10058000CF90BF90AF909F908F9008951F920F9241
:100590000FB60F9211242F933F934F935F936F9356
:1005A0007F938F939F93AF93BF93EF93FF938BE1D1
:1005B00091E00E940501FF91EF91BF91AF919F9152
:1005C0008F917F916F915F914F913F912F910F90FC
:1005D0000FBE0F901F9018951F920F920FB60F929B
:1005E00011242F938F939F93EF93FF93E0912B010F
:1005F000F0912C018081E0913101F091320182FD76
:100600001BC09081809134018F5F8F7320913501E1
:10061000821741F0E0913401F0E0E55EFE4F958FE6
:1006200080933401FF91EF919F918F912F910F90C3
:100630000FBE0F901F9018958081F4CF1F920F92DC
:100640000FB60F9211242F933F938F939F93AF93E5
:10065000BF938091130190911401A0911501B09165
:1006600016013091120123E0230F2D3758F5019622
:10067000A11DB11D209312018093130190931401C9
:10068000A0931501B0931601809117019091180164
:10069000A0911901B0911A010196A11DB11D80937D
:1006A000170190931801A0931901B0931A01BF91FB
:1006B000AF919F918F913F912F910F900FBE0F900F
:1006C0001F90189526E8230F0296A11DB11DD2CFC9
:1006D000789484B5826084BD84B5816084BD85B51D
:1006E000826085BD85B5816085BD80916E00816029
:1006F00080936E00109281008091810082608093CF
:1007000081008091810081608093810080918000D0
:100710008160809380008091B10084608093B100FB
:100720008091B00081608093B00080917A008460F5
:1007300080937A0080917A00826080937A00809121
:100740007A00816080937A0080917A00806880933B
:100750007A001092C100E0912B01F0912C0182E00F
:100760008083E0912701F09128011082E091290116
:10077000F0912A018FEC808310923301E0912F01D8
:10078000F091300186E08083E0912D01F0912E01FF
:10079000808180618083E0912D01F0912E01808124
:1007A00088608083E0912D01F0912E018081806826
:1007B0008083E0912D01F0912E0180818F7D8083D7
:1007C00061E083E00E94E00161E084E00E94E001DA
:1007D00061E085E00E94E00160E08FE00E94E001BE
:1007E00011E488248A9483E0982EA12CB12CC0E0D7
:1007F000D0E010937C0080917A00806480937A002E
:1008000080917A0086FDFCCF80917800A0917900DC
:10081000BA2FA82F24E833E00E940105A501940116
:100820000E94B10469017A0184E6C80ED11CE11C62
:10083000F11CD092B901C092B8016EEA83E00E9427
:1008400094016CE584E00E94940166EE85E00E94CC
:100850009401C701B6010E9493026FEF83E00E94EA
:1008600094016FEF84E00E9494016FEF85E00E9495
:100870009401C701B6010E94930260E083E00E94E8
:1008800094016FEF84E00E9494016FEF85E00E9475
:100890009401C701B6010E9493026DEB83E00E94B0
:1008A00094016EEA84E00E94940164E185E00E9474
:1008B0009401C701B6010E94930261EE83E00E9499
:1008C000940167E584E00E94940163E285E00E9460
:1008D0009401C701B6010E949302B60183E00E9411
:1008E0001102B60184E00E941102B60185E00E9467
:1008F0001102209709F47DCF0E94F100882309F4AA
:1009000078CF0E94000075CFEBE1F1E013821282F4
:1009100088EE93E0A0E0B0E084839583A683B7835C
:1009200084E091E09183808385EC90E095878487D3
:1009300084EC90E09787868780EC90E0918B808BA9
:1009400081EC90E0938B828B82EC90E0958B848B92
:1009500086EC90E0978B868B118E128E138E148E00
:100960000895052E97FB1EF400940E94C80457FDBD
:1009700007D00E94D00407FC03D04EF40C94C804A6
:1009800050954095309521953F4F4F4F5F4F0895BB
:1009900090958095709561957F4F8F4F9F4F0895EB
:1009A000A1E21A2EAA1BBB1BFD010DC0AA1FBB1F73
:1009B000EE1FFF1FA217B307E407F50720F0A21BE5
:1009C000B30BE40BF50B661F771F881F991F1A9452
:1009D00069F760957095809590959B01AC01BD017C
:1009E000CF010895A29FB001B39FC001A39F700DD6
:1009F000811D1124911DB29F700D811D1124911D27
:100A000008950E94F204B7FF0895821B930B089586
:100A1000EE0FFF1F0590F491E02D0994F894FFCF9D
:100A20000000000027018700B4007401E500C30046
:020A3000D700ED
:00000001FF
